:040000006F10003F3E
:100004000000000000000000C8020000CA02000056
:1000140000000000EE1300000000000000000000DB
:10002400EE130000EE1300000000000000000000CA
:10003400EE13000000000000EE13000000000000BA
:10004400EE130000EE130000EE130000EE130000A8
:10005400EE130000EE130000EE130000EE13000098
:10006400EE130000EE130000EE130000EE13000088
:10007400EE130000EE130000EE130000EE13000078
:10008400EE130000EE130000EE130000EE13000068
:10009400EE130000EE130000EE130000EE13000058
:1000A400EE130000EE130000EE130000EE13000048
:1000B400EE130000EE130000EE130000EE13000038
:1000C400EE130000EE130000EE130000EE13000028
:1000D400EE130000EE130000EE130000EE13000018
:1000E400EE130000EE130000EE130000EE13000008
:1000F400EE130000EE130000EE130000EE130000F8
:1001040000000000EE130000EE130000EE130000E8
:10011400EE130000EE130000EE130000EE130000D7
:10012400EE130000EE130000EE130000EE130000C7
:10013400EE130000EE130000EE130000EE130000B7
:10014400EE130000EE130000EE130000EE130000A7
:10015400EE130000520A0000EE130000EE1300003C
:10016400EE130000EE130000EE130000EE13000087
:10017400EE130000EE130000EE130000EE13000077
:10018400EE130000EE130000EE130000EE13000067
:10019400EE130000EE130000EE130000EE13000057
:1001A400000000000000000000000000000000004B
:0C01B4000000000000000000000000003F
:1001C000397101436EC619A0397141536AC866CAB4
:1001D00062CC5ECE19A0397101535AD056D252D496
:1001E0004ED64AD826DA22DC06DE3301614082820E
:1001F00041114AC026C222C406C68282B24D4101C4
:10020000024D924C224CB24B4101024B924A224A7F
:10021000B2494101024992442244B24041018280E4
:100220003D432A876373C3029377F700BDEFADE5C3
:10023000937606FF3D8ABA960CC34CC30CC74CC7D5
:100240004107E36BD7FE11E28280B306C3408A0602
:100250009702000096966780A6002307B700A306C2
:10026000B7002306B700A305B7002305B700A30412
:10027000B7002304B700A303B7002303B700A3020A
:10028000B7002302B700A301B7002301B700A30002
:10029000B7002300B700828093F5F50F9396850091
:1002A000D58D93960501D58D61B79396270097025A
:1002B000000096968682E78086FA9680C1171D8F89
:1002C0003E96E374C3F8A5B701A0B707EFBE37E7C2
:1002D00000E0938707083CC701A0EFF27FF1EF1021
:1002E00090559D473365F5023704002093070413AA
:1002F00098431304041375153A9588C3635A05008F
:10030000EF1070538D473365F50208C0082019B708
:100310009304F002E3DCA4FEEF10F0518D47336547
:10032000F502898C04C0DDB7EFF29FEC41118545E1
:10033000114502C202C402C6EF10203BE1777C8265
:1003400037150140C1473EC64C008D471305058057
:100350003EC4EF10C012410175BDEFF27FE90D659B
:1003600013059503EF10D0470945EF10601EB52225
:10037000EF109014716513050520EF10501DB7079D
:10038000002083A54713373500001305851AEF10A9
:100390005033373500001305C51BEF10D0433D2106
:1003A0000545212BB7E700E03707200023A4E7101D
:1003B000A53FEF10E07AEF10E05D3736000013063E
:1003C000C61C81450145EF106076EF1040561305BD
:1003D000803EEF1070143D240937EF100063E5BF35
:1003E000B71702409843B706FFF041111367170093
:1003F00098C3D84337060200758FD8C39843B70611
:10040000F7FEFD16758F98C39843B706FCFFFD16DF
:10041000758F98C3D843B70601FFFD16758FD8C3F3
:100420009843B70600ECFD16758F98C33707FF0099
:1004300098C723A6070202C402C69843C166558F17
:1004400098C3B716024005679C42F18F3EC6A2478B
:1004500085073EC4B24781E7A247E397E7FEB71797
:1004600002409C431397E7006357070685473EC643
:1004700032478547631FF704B7170240D843B706D2
:10048000C1FFFD16D8C3D843D8C3D843136707406C
:10049000D8C3D843758FD8C3D843B7062900558F22
:1004A000D8C39843B7060001558F98C39843931655
:1004B0006700E3DD06FED843B7160240719BD8C340
:1004C000D84313672700D8C32147DC42B18BE39E92
:1004D000E7FE4101828002C661BFB7160240D842E2
:1004E0001146318B938741806305C700214663081D
:1004F000C70237177A001307072098C3371702403F
:10050000584311839376F70037070020130707003D
:100510003697142398433357D70098C38280D84224
:10052000D442416649833D8BF18E1306270015CFD7
:100530003D47630FE6024147630FE60245478145A9
:100540006313E6004146A1E23747024003270780D4
:10055000418B0DC737177A00130707203306C702F0
:1005600090C3C9DD9843058349BF81454946E1BF32
:1005700085453546C9BF81453D46F1B737173D0032
:1005800013070790E1BF3715024058559316F7003F
:10059000585563DF060411833D8B93061700371708
:1005A0007A00130707203357D70298C35455A18206
:1005B000BD8A8DE295463307D702058398C3371766
:1005C0000240585794433D8B050733D7E60298C342
:1005D000984369B705456394A600E546E9BF3D45E4
:1005E0006396A600D1463387E602C9BF8906E5BFF8
:1005F0003D8B9306170037177A00130707203357F0
:10060000D702F1B7EFF2DFBE03C7018205CB83C586
:100610001182373500001305C51D3E84EF10700AA6
:1006200083C71182054691E3014637150140A16554
:1006300013050580EF0030712380018283C751824A
:1006400093F7F70FC5C33724002093070418BC2382
:100650001304041893F7F70FA5C70C301C3081461C
:1006600005458607A297D023D83393979500B70501
:100670000020220793850518BE95598EC124238139
:10068000A1821DEDB7E700E03707200023A4E7189B
:100690000F1000003C204147FD1793F7F70F3CA0D7
:1006A0001C30850793F7F70F1CB01C306314F7005C
:1006B000A3000400B7E700E03707200023A4E710F9
:1006C0003C200D476360F7023C3093F7F70F99CB5E
:1006D000A3010400B737024003C7F74D1377C70FD4
:1006E000A38FE74C05BE93874183982393060010A0
:1006F0001377F70798A39387C1829A236391E60241
:10070000B737024003C767401377C70F2383E7401B
:1007100003C76740136727002383E74082809A233B
:1007200093060020639FE600B737024003C7674087
:100730001377C70F2383E74003C76740136737006A
:10074000E1BF9A2393060030639FE600B73702406B
:1007500003C767401377C70F2383E74003C767408A
:100760001377F70F55BF9E2313070040631FF7044D
:1007700037370240834667409307074093F6C60F1A
:100780002303D7408346674093E616002303D740F0
:100790008346074093E606082300D7403707040046
:1007A000210798CBD84B1367F70FD8CB370700201A
:1007B00013070701F8D3130750032392E70E13071B
:1007C00000FD2380E70E0947B8A78280EFF25FA201
:1007D0000545EF00707C0145EF0090760545EF0080
:1007E00090740545EF0070770545EF00B07805651A
:1007F000854513050580EF00706D29BCB7370240B1
:1008000037072A00938707401307270598CB13075C
:100810000004239CE70813070020239EE708239287
:10082000E70A2394E70A2396E70A2398E70A37277B
:1008300000201307471AD8CF3707002013070718DF
:10084000B726002098D39386461E94D7B72600205B
:100850009386465E94DBF8CF372700201307473E88
:10086000B8D7372700201307477EB8DB239C070C37
:100870000947238DE70CA38D070CA38F070CA383D7
:10088000070EA387070E239E070C238FE70C2394E4
:10089000070E2385E70E2398070E2389E70E3737C7
:1008A000002081471307479EC1463306F700230007
:1008B00006008507E39BD7FE8280EFF27F933734F3
:1008C000024021C999472300F4402945EF106041B7
:1008D000834704409304044093F7B70F2300F44088
:1008E000C147A300F440930790022300F44093070C
:1008F00070022301F4401937834704403707200072
:1009000093E707012300F440B7E700E023A4E710D2
:1009100011B299472300F4402945EF10803C8347EA
:1009200004403707200093F7B70F2300F440B7E7E0
:1009300000E023A4E7180F100000D9BF9307F5FFCC
:1009400013F8F70F39476363071137370240832ED7
:100950000741054EB31FAE0093FEFE0F33FFFE01AD
:10096000854863060F0EEFF2BF88373900209308E1
:10097000499EAA9803CF08001309499E8548137F12
:100980001F0063190F06032887412E83B284137852
:10099000F80F3378F8012A846308080841053315F5
:1009A000AE003375D50139E58A071305E74D3E954D
:1009B000034805001378F80FA1E613788800631E3A
:1009C00008021307C745BA9723A0670022998347F7
:1009D000090037950010130565D393E717002A9493
:1009E0002300F9000A0406A03C20814893F7C70FB2
:1009F0003CA03CA046856FF0FF8113070742E1B79A
:100A00008548E399C6FF13788800631C0800130724
:100A1000C745BA978843B70700203E95EF10403F7F
:100A200075B713070742F5B781EAB79700109387A8
:100A300067D1AA978A0749BF8548E39DC6FBB79748
:100A40000010938767D1AA978A07E9B7854846853A
:100A50008280797122D63734024026D44AD24ED0D1
:100A600052CE56CC5ACA5EC862C61304044038241B
:100A70003C341377F70F93762700638C063493F793
:100A8000F70F13F707036300071A93060002631CAE
:100A9000D70093F7F703930610026386D71263E734
:100AA000F602638AE706B737024009472385E74025
:100AB000938707403254A25412598259724AE24A2B
:100AC000524BC24B324C4561730020301307400239
:100AD0006382E71213076002E397E7FC8347240F62
:100AE00093F7C70F93E727002309F40E8347240FDA
:100AF00093C787002309F40EB73700209387479EDA
:100B0000F8231377E70FF8A38347F40E93F7C70F83
:100B1000A307F40E49BF9387E1829E239384E18269
:100B2000C207C18381E7A147A30DF40C83C70183EA
:100B300093F70706BDE383C7A182154793F7F70F25
:100B40006385E7061947639BE7069E201307F003BA
:100B5000130400046365F700822042044180138976
:100B6000818383290900372500202286CE8513053D
:100B7000451AEF10E0299E20A29923203901818F88
:100B8000C207C1839EA0B7370240239C874C03C78E
:100B9000A74D13478700238DE74C83C74183E207A6
:100BA000E187E3D207F08136FDBD03C73182B73755
:100BB00002401377F70FA381E740C5B7B73702406C
:100BC000239C074CD9BF8347E40D93F7C70F93E7E6
:100BD0002700230FF40C8347E40D93C78700230FEE
:100BE000F40CB73700209387479E98331377E70FAD
:100BF00098B355BD8347A40E93C787002305F40E11
:100C0000930700202314F40E8347A40E93F7C70F15
:100C10002305F40EB73700209387479ED823137718
:100C2000E70FD8A349B513F7F70385446305970E7B
:100C30002DC78D466304D7169546E316D7E693F77E
:100C40000704E38207E65A248347F40EB726002000
:100C5000420793C78700A307F40E8347F40E372695
:100C60000020418393F7C70F93E72700A307F40EF3
:100C70009386467E81471306465E93950701C181A0
:100C800063EFE512B73702402398E74E03C7274FBB
:100C90001377C70F2389E74E39B55A2493F7070412
:100CA000131407014180E38007E083C70183130722
:100CB000000493F707066396E70237350000130533
:100CC000C523EF10403103C70182BE8601EB83C705
:100CD000A18293F7F70F95CB638C9702854723800A
:100CE000F1829387E1829A23018F420741839AA37D
:100CF0009E23C207C183E39807DAB7370240239CDB
:100D0000074C2147238DE74C79BBA3800182F9B7BB
:100D1000A380F182E1B793F70704E38607D88347FE
:100D2000F40D93C78700A30FF40CB7270020138797
:100D30000718142352249387071886064206BA968A
:100D40004182D2A21423850693F6F60F14A318232A
:100D5000C1466394E60023800700942337070020F0
:100D600013070718A606BA96373702402320D74242
:100D7000B4232D4613070740850693F6F60FB4A358
:100D8000B423E372D6D28346F70D93F6C60F93E6EB
:100D90002600A30FD70C0547B8B331B393F7070468
:100DA000E38307D08347740E93C78700A303F40E31
:100DB0008347740E93F7C70FA303F40EEDB1B30589
:100DC000F6008C213385F600850793C5F5FF0CA14D
:100DD0006DB593770702638C075AA947230DF40C6E
:100DE00037290020A30DF40C9307491A9823943354
:100DF000138A01832300EA001387A18214A3F62338
:100E00001387E18216A3B6231387218316A3DA235F
:100E1000373500009387C182130585249AA3EF100C
:100E2000801B83470A00130700049389E18293F72C
:100E3000070693840183938BA182130A491A138BAB
:100E400021831384C182814A6392E70403CC0B009F
:100E50008547930AF00F137CFC0F6319FC023735AA
:100E6000000013058525EF1000171E20C207C1835F
:100E7000639C870337350000A380F1821305452763
:100E8000EF10601505472380E182814A83C70B007C
:100E9000294793F7F70F6367F72A0D678A07130748
:100EA000471FBA979C43828737350000A380018291
:100EB0001305C527F1B783570B001947A183FD1709
:100EC00093F7F70F138A81836366F7100D678A071C
:100ED00013070722BA979C4382878D671387C72F12
:100EE00083C7C72F2320EA0003D7090063F4E70074
:100EF0002390F90083D709001307F00313040004BB
:100F00006366F70003D4090042044180032B0A0002
:100F100022861305491ADA855A94EF00706F232050
:100F20008A009307F00F638FFA209C2003D70900F3
:100F3000E207E18763DC07429307000463E6E7000A
:100F400083D70900C207C18303D709001D8F420759
:100F500041832390E90037370240231CF74CA14717
:100F6000230DF74CFDA2B737024083C687408D8A18
:100F7000054693879182138761826396C60294A384
:100F80009306002016A39C2305476313F7020D6701
:100F90001307072C3C332320EA003823A207BA9713
:100FA000C207C18391B72380070093060004D9BF0D
:100FB0000D6713074728F9BF83570B00054793F7C1
:100FC000F70F6384E70299CB09476388E7020D476F
:100FD000638DE7028147930AF00F39B71387418188
:100FE0002320EA0083C7418101B78D67138707314A
:100FF0002320EA0083C70731C5BD8D6713870732F9
:101000002320EA0083C70732C5B58D6713870734ED
:101010002320EA0083C70734C1BD8D671387473398
:101020002320EA0083C74733C1B593879182982371
:101030008546639DE6020D671307472820333C234E
:101040008D6522043E94370500201306E4FF938546
:10105000652813056508EF00B05BB707002093878C
:1010600047082320FA009317040125BF9C2393F718
:10107000F70FADF30D671307072C20333C238D6565
:1010800022043E94370500201306E4FF9385252CA7
:101090001305A504EF00D057B707002093878704F6
:1010A000C9B783570B0093F7F70FA381F18295BD62
:1010B00083C741822300FA0003D709008547E3F282
:1010C000E7E62390F900B1BD83570B0093F7F70FC4
:1010D0002382F1820547A382E182B73702401307DA
:1010E00000202394E74E03C7A74E1377C70F23852D
:1010F000E74E05BD9C20FD8B99EF83570B000547FC
:1011000093F7F70F6390E70493878182982313770F
:10111000E70F98A339B594208947FD8A6394F602B6
:101120001E20154693F7F70F6382C7063737024034
:10113000130707406364F60285466380D7048D4633
:101140006380D704B73702402D47238DE74CA38D2A
:10115000E74CB73702401307000289BA130640086C
:101160006383C702130660086387C702130610086B
:10117000E39AC7FC230FD70C6DB3A30F070C55B32D
:10118000A303070E79BB2305D70E61BBB737024017
:10119000A387074E79B32309D70E61B39C20FD8B3B
:1011A000ADE783570B00054793F7F70F639EE70002
:1011B0008D6783C7B72893F70702C9D793878182C2
:1011C000982313671700B1B783570B00094793F7AC
:1011D000F70FE399E7F61E20130700106301F702EB
:1011E0001E2013070020630CF7001E201307003099
:1011F0006307F7001E2013070040E314F7D293871C
:10120000418398231367070829B79C200947FD8B62
:10121000E39AE7F283570B0093F7F70FE39307D0B6
:101220001A209546B73702401377F70F6304D706A5
:101230009387074063EFE6008546630FD7028D462C
:10124000E312D7F003C7770E13673700A383E70EC7
:10125000C9B9930640086308D70293066008630281
:10126000D70493061008E31FD7EC03C7E70D1367F5
:101270003700238FE70C75B103C7F70D13673700ED
:10128000A38FE70C79B903C7A70E1367370023852F
:10129000E70E41B903C7F74E13673700A387E74E40
:1012A00049B103C7270F136737002389E70E95B9A4
:1012B00023000A0011B59C2023100A000947FD8B6A
:1012C000639CE7081E20954693F7F70F638CD706BB
:1012D000373702401307074063EEF6008546638FF9
:1012E000D7020D466385C704930AF00F03D70900A0
:1012F0008947F1B3930640086383D70493066008D7
:101300006389D70493061008E390D7FE8347E70D5F
:101310008D8B0D47E39CE7FC854739A00347F70D0C
:101320008D460D8BE314D7FC2300FA00C1B70347A9
:10133000770E0D8BE31CF7FA2300DA0045BF8347D5
:10134000A70EF9B7B73702409387074083C7F70E58
:10135000C1B78347270F6DBF9C20FD8BC1FB83C79F
:101360008182858BC1D72300EA0049B74207B7378E
:10137000024041839387074019E7239C070C2147CC
:10138000238DE70CF9B32147A38DE70CD9B39377ED
:1013900017008DC323820182A381018223840182ED
:1013A000A3820182A3010400EFF04FC585473CA44E
:1013B0006FF04FF09377470085CB91473CA42945C8
:1013C000EF003012183493878182118B01CB982360
:1013D0001367270098A39C236FF0CFED9823137712
:1013E000D70F98A36FF00FED38A46FF0AFEC01A00A
:1013F00097F1FF1F9381015417710020130181C0E1
:10140000172500001305452397F5FF1F938585BF1A
:101410001386018263FAC5008322050023A05500CC
:1014200011059105E3EAC5FE138501829725002089
:101430009385C5A46377B500232005001105E36DEE
:10144000B5FEFD42739002BCAD4273904280B7621C
:101450000000938282087390023097F2FFFF93821C
:10146000A2BA93E2320073905230EFE07FF797F226
:10147000FFFF9382C2EE73901234730020309C45BC
:1014800013F7070113F8F70001C7D8413368E800E4
:101490008E2113F7F50F39C318418146854E3D4F14
:1014A000930F800293028004214E3396DE00B3F83E
:1014B000C500631116039398260033131F011343CD
:1014C000F3FF3377E300B318180133E7E800639FB5
:1014D000F70550C98506E39AC6FD18C11307F00F3A
:1014E0006375B70454412146854E3D4F930F8002EA
:1014F00093028004414EB398CE0033F715016392F6
:10150000E8021317260001173313EF001343F3FF0C
:10151000B376D3003317E800D98E639DF701232AF1
:1015200015010506E319C6FD54C18280E39457FAFC
:1015300010C94DB7E39757FE23281501DDB70CC935
:1015400082804CC9828019C20CC982804CC98280B9
:1015500023AEA1828280371702405C439146B18B53
:101560006385D700A1466382D706B7177A009387B1
:1015700007201CC1371602405C42370700201307C2
:10158000070C9183BD8BBA9794231C41B3D7D70026
:101590005CC15442A1829D8ABA969422B3D6D700E8
:1015A00014C55442AD829D8A36971823B3D7E700FD
:1015B0005CC558423983937637001387818036970C
:1015C0001823B3D7E7021CC982805C435843C16625
:1015D000C983758FB7F6FF1F83A6C670BD8B8907B9
:1015E0001396160163480600C54601466392D7026A
:1015F000C94739A88946638FD702BD46638ED70293
:10160000C146638ED702C54601466393D700C147E2
:101610001DEF3747024003270780418B05C7371767
:101620007A0013070720B307F7021CC121D61C411B
:10163000858381B701466DBF0546B547D1BF0146D9
:10164000BD47F9B737173D0013070790E9BFB71536
:101650000240D8559316F700D85563DF060411836E
:101660003D8B9306170037177A001307072033576F
:10167000D70218C1D455A182BD8A8DE295463307A1
:10168000D702058318C137170240585714413D8BC4
:10169000050733D7E60218C1184171B78545639431
:1016A000B600E546E9BFBD456396B600D14633872F
:1016B000E602C9BF8906E5BF3D8B930617003717C1
:1016C0007A00130707203357D702F1B799C53717A8
:1016D00002405C4B5D8D48CB8280B7170240D84BEF
:1016E0001345F5FF798DC8CB828099C53717024025
:1016F0001C4F5D8D08CF8280B7170240984F13456D
:10170000F5FF798D88CF828099C5371702405C4FED
:101710005D8D48CF8280B7170240D84F1345F5FF43
:10172000798DC8CF8280B7170240D857B70600F925
:10173000FD16758FD8D7D8576205598DC8D78280C6
:10174000B7170240D857B70600F8FD16758FD8D7DF
:10175000D8576E05598DC8D78280B7170240D85721
:10176000B70600D0FD16758FD8D7D8577205598D9A
:10177000C8D7828009C9371702405C57B7060040B6
:10178000D58F5CD78280B7160240DC56370700C081
:101790007D17F98FDCD68280371702405C577E05B3
:1017A000860785835CD75C575D8D48D782801A2178
:1017B0008D6793870704B6217D8F9E21D58FD62113
:1017C000D58FF621D58F9625D58FB625D58FD625E1
:1017D000D58FF625D58FD98F1EA15A2DFD779387EA
:1017E000F77FF98F5EAD9E291EA982801E2189C5D3
:1017F00093E707041EA18280C207C18393F7F7FB1A
:10180000C207C183C5BF4EA582800A256D8D3335C1
:10181000A0008280EFE2DF9D1629F577FD17F58F96
:10182000F621DA257971D58F1EA95625FD77938784
:10183000379FF58FD6212A842EC6D58F9625D58F32
:10184000B625D58F5EA55E29C207C18393F7F7CF72
:10185000D98F5EA968080133B74701409387078095
:10186000B245631EF402A2576547B387E702984169
:10187000930640060A07B3D7E70233D7D702B3F778
:10188000D7021207920793872703B3D7D702BD8BDE
:10189000D98FC207C1831EA445616FE0BF979257DD
:1018A000E1B791C55E250967D98F5EA582805A256B
:1018B000F977FD17F98FD5BF93F5F51F4EA18280FB
:1018C0000A216D8D3335A0008280EFE27F9237448C
:1018D0000040AA841309048089454A853D376DDD9F
:1018E000A6851305048037440040313F130404806B
:1018F0008544930500082285093FE30C95FE6FE0BF
:101900007F91EFE2FF8E37140140AA8485651305AD
:1019100004C0053993050040130504C01D31268518
:101920006D378565130504C019396FE0BF8EEFE28E
:101930009F8AB734002037190140938444A71304C9
:10194000000B130909C0930A0008130A800B2285B3
:101950004D3F01457D3741456D378149B38734019E
:1019600085654A8503CB0700E93E930500404A851B
:10197000F9365A85993F85654A858509C936E39FB9
:1019800059FD05041374F40F93840408E31144FD16
:101990006FE0BF87B7370020938747A7938607403C
:1019A000130600080147B385E700238005000507FB
:1019B000E31BC7FE93870708E396D7FE8280931741
:1019C0008501E18763CE07029307F00363EAB7025C
:1019D00013C7F5FF9377770005473317F7008D811D
:1019E0009D478D8F93F7F70F93967700B7370020B9
:1019F000938747A7B6973E951C2101C65D8F18A116
:101A000082801347F7FF7D8FDDBFEFE2CFFC83C7F6
:101A10000184B73500209386459F1308F002BE96D7
:101A2000138701849389459F1306F0026363A8001E
:101A30002A86850793F7F70F90A293968701E18690
:101A400063DD060623000700B7370020938747A70A
:101A500013860710930500089387074081463305D6
:101A6000D600230005008506E39BB6FE1306060894
:101A7000E396C7FE00230149930A00088144338A94
:101A80008900A68505464A851D3F83470A008504CF
:101A900093F4F40FE3F797FE05041374F40F931710
:101AA0008401E18763D30700014405091379F90F25
:101AB000E31659FDAD3D6FE04FF51CA371B79317C9
:101AC0008501E18763C307069D4763E0B706930777
:101AD000A007194763F7A700130700F8098F1377CA
:101AE000F70F93060002B2876354D60093070002F3
:101AF000E207E187994681179E05B73800200D68F7
:101B0000B387D702AA958146938848A713088835DA
:101B10003385F600429508213386B6004696850641
:101B200008A213F6F60FE365E6FE8280EFE2AFEA65
:101B30002A84AE8432899309A0070306090019E2BA
:101B40006FE0AFEC22851904A6851374F40F853F6E
:101B500063F68900850493F4F40F01440509F1BF8D
:101B6000EFE20FE901118545116502C002C202C40E
:101B700002C602C802CA02CC231E01007136854586
:101B80002145A53637140140E9777C808D44E14733
:101B90008A85130504C03EC426C2EFF05F8E8967B4
:101BA000938707C07C808A85C147130504C03EC463
:101BB00026C2EFF0DF8C130504C08565EFF03F9877
:101BC000130504C093050040EFF07F97856493856B
:101BD0000480130504C0EFF09F96B7C704013EC60A
:101BE000B70700023ECA37490040A1473ECC6C000F
:101BF0009D4713050980FC8602C8553E13050980E0
:101C00008545ED3693850480130504C0EFF07F937E
:101C100013054006112293850480130504C0EFF0DC
:101C20001F9213052003CD281305E00AD939014579
:101C3000C9394145F93113050004E1311305100894
:101C4000C9311305F00C75391305100A5D391305F8
:101C5000800C45391305600A6D311305800A553132
:101C60001305F00379391305300D613901455139F8
:101C70001305500D79311305000F61311305900DD7
:101C800049311305100FB5391305A00D9D3949458C
:101C90008D391305B00DB531130500049D311305C1
:101CA000D00885315145B1391305F00A9939DD3134
:101CB000BD3905616FE00FD6B707002083A7471332
:101CC00037177A0013070720B3D7E70293F7F70F08
:101CD0002382F1841307803EB387E7022391F184C6
:101CE0008280B7F700E0D8438146799BD8C303C709
:101CF00041843306A70290CBD4CB984313670701E6
:101D000098C398431367170298C3D843058B75DFB0
:101D10009843799B98C38280B7F700E0D843814607
:101D2000799BD8C303D721843306A70290CBD4CBA9
:101D300098431367070198C398431367170298C322
:101D4000D843058B75DF9843799B98C38280EFE277
:101D50002FCA2A841165011185451105EFF0FF98FE
:101D6000930700207C82371501408D473EC44C000C
:101D7000E147130505803EC6EFF06FF022C83744F7
:101D80000140B70708000C08130504803ECC02CAC6
:101D9000231E0100EFF01FA8854513050480EFF016
:101DA0005FB005616FE00FC7EFE2EFC2B7440140DB
:101DB000AE893289014493840480634524014A85B5
:101DC0006FE0AFC4930500042685EFF07FAF7DD9A7
:101DD000B38789008385070026850504C205C18174
:101DE000EFF09FADD9BF1387C1801C43B7360020E9
:101DF000938686E73E95636BD500B7860020938671
:101E0000068063E5A60008C33E858280FD57EDBFCE
:101E1000B3C7A5008D8B3307C50081E78D4763ED00
:101E2000C700AA87637EE508942185078505A38FEF
:101E3000D7FEE3EBE7FE828093763500AA8789CA56
:101E4000942185078505A38FD7FE93F63700C5BF7C
:101E50009376C7FF138606FE63F0C70683A30500CB
:101E600083A2450083AF850003AFC50083AE0501A3
:101E700003AE450103A3850183A8C50193854502EF
:101E800023A0770003A8C5FF23A2570023A4F701CE
:101E900023A6E70123A8D70123AAC70123AC670023
:101EA00023AE17019387470223AE07FF75B7904112
:101EB0009107910523AEC7FEE3EBD7FEE3E6E7F615
:101EC000828039713EDA2ED232D436D63AD842DC0C
:101ED00046DE9387018122CC804326CA06CEAA849F
:101EE00009C41C4C99E32285D12B0C44541026863E
:101EF000228536C6EF00B020F2406244D244216110
:101F00008280011126CA4AC806CE22CC4EC652C4CF
:101F1000AA842E8901C51C4D91E34D239C4C80441D
:101F200099E32685612B9717000093872769631B28
:101F3000F402C0405E24A18BB1C71C48A1C7FD5963
:101F4000294A1C4483450900FD17B1E91CC463DD1F
:101F500007062286A94526858D22FD576308F502CE
:101F6000294535A097170000938747676314F4004D
:101F70008044C9B79717000093874762E31CF4FABF
:101F8000C0444DBFA2852685FD2255D97D55F2401E
:101F90006244D2444249B249224A056182801CC44B
:101FA000050963D70700184C63CAE7006388450139
:101FB0001C401387170018C08CA361B722862685A2
:101FC000ED28E31035F9D9B71C401387170018C066
:101FD000294798A371B793870181AA85884315B7CC
:101FE00041119387018122C4804326C206C61C5C2E
:101FF000AA848DEB6145292FB737CDAB08DC9387D9
:10200000E7301CC1B7176DE6938747235CC1B7E77C
:1020100005009387C7EE1CC5AD475EA50547814700
:1020200018C95CC91C5CB240224484CB23AA0700B7
:1020300092444101828041119387018122C48043EF
:1020400006C61C5C8DEB6145E125B737CDAB08DCDE
:102050009387E7301CC1B7176DE6938747235CC1B0
:10206000B7E705009387C7EE1CC5AD475EA50547DA
:10207000814718C95CC9105C3787954CB7F7515830
:10208000144A484A1307D7F29387D742B387F60218
:10209000B24022443305E5023E95B387E60233B7EA
:1020A000E6029386170014CA2A9733B5F6003A95CC
:1020B00048CA0605058141018280011122CC26CA49
:1020C0004AC806CE4EC6AA842E89328401C51C4D4C
:1020D00091E3ED26971700009387474E6317F406A8
:1020E000C0401C4C1CC45E24A18BC1C31C48B5CF8E
:1020F0001C4808409379F90F1379F90F1D8D5C483E
:102100006346F500A2852685692C25E51C44050556
:10211000FD171CC41C401387170018C0238037010B
:102120005C486388A7005E24858B81CBA947631632
:10213000F900A2852685B5240DEDF24062444A855A
:10214000D2444249B24905618280971700009387C3
:10215000E7486314F400804469B797170000938739
:10216000E743E310F4F8C044ADBFA28526852120E3
:1021700041D17D59D9B741119387018126C284434A
:1021800022C44AC006C62A892E8489C49C4C99E37D
:1021900026852D269717000093874742631BF4027C
:1021A000C0400317C40093170701C18393F687004B
:1021B000ADEA93F6070195EEA5472320F9001367D2
:1021C00007045AA47D55B240224492440249410179
:1021D000828097170000938767406314F40080445F
:1021E000C9B7971700009387673BE31CF4FAC04414
:1021F0004DBF918B9DC34C5889C993074404638498
:10220000F5004A85192B232A04025E2423220400A8
:1022100093F7B7FD5EA41C481CC05E2493E78700BB
:102220005EA41C4899EB5E241307002093F707284F
:102230006385E700A2854A85A1215E2413F7170074
:102240001DC35C4823240400B307F0401CCC1C4889
:102250000145B5FB8317C40013F707082DD793E793
:1022600007045EA485B7898B014791E3584818C4D9
:10227000F9BFDE25011122CC26CA06CE4AC84EC6B9
:1022800013F78700AA842E8479EBD841634DE000D0
:10229000B841634AE0000145F2406244D2444249F9
:1022A000B2490561828058547DD703A904009396F2
:1022B000370123A0040063DB060670485E24918B7F
:1022C00099C75C401D8E5C5899C33C401D8E5C5480
:1022D0000C50814626858297FD575A24631DF500D0
:1022E0009440F54763E8D706B70740208507B3D782
:1022F000D700858BA5C31C48232204001CC093175C
:10230000370163D80700FD576314F5009C4091E343
:1023100068C84C5823A02401BDDD9307440463849E
:10232000F5002685DD2E232A0402B5B70C500146A0
:10233000854626850297FD572A86E311F5F89C40CD
:10234000B5DF75476385E70059476393E70423A02A
:10235000240191B7136707045AA47D5535BF83A99B
:102360000501E38A09F203A905008D8B23A035013D
:1023700033093941014791E3D84918C4E35D20F19D
:102380001C540C50CA864E86268582976347A0004F
:102390005E2493E707045EA4C9B7AA993309A9404C
:1023A000F1BF9C49B9CF011122CC06CE2A8411C5B8
:1023B0001C4D81E72EC61922B2459717000093875E
:1023C000E71F639BF5004C408397C50095C72285A6
:1023D0006244F240056171BD9717000093870720A2
:1023E0006394F5000C44CDB7971700009387071B43
:1023F000E39CF5FC4C44C9BFF240624401450561D1
:10240000828001458280411122C406C62A844EA5DD
:1024100072A5232005002322050023240500232282
:10242000050623280500232A0500232C0500214644
:1024300081451305C505EFD0BFDE971700009387D0
:1024400087B25CD0971700009387A7B41CD4971766
:102450000000938787B85CD4971700009387E7BA8A
:1024600000D01CD8B2402244410182809705000070
:10247000938565F3A9A2411126C2130680069384B1
:10248000F5FFB384C4024AC02E8922C406C69385D0
:102490004407052E2A8401CD23200500232225018F
:1024A000310508C4138684068145EFD07FD7228585
:1024B000B240224492440249410182801C4DADE366
:1024C000411106C622C497070000938767FA1CD5FE
:1024D000938781819C432324050423260504232814
:1024E00005046314F50085471CCD2A841D2848C0C7
:1024F0002285052808C422852D2048C4484001466D
:102500009145113708440546A545F53D484409461F
:10251000C945D53D85471CCCB2402244410182804B
:10252000828041119387818126C284434AC006C6B6
:102530009C4C22C42A8999E32685493793848404D4
:102540008044DC40FD1763D607009C40B9CF84402F
:10255000C5BF0317C40039E7C177850723220406E6
:102560002320040023220400232404005CC4232825
:102570000400232A0400232C04002146814513056E
:10258000C405EFD0FFC9232A0402232C040223240C
:102590000404232604042285B240224492440249C2
:1025A000410182801304840671BF91454A85E1355B
:1025B00088C051FDB1472320F9000144E9BF79717A
:1025C00022D44AD052CC56CA5AC85EC606D626D2A3
:1025D0004ECE2A8AAE8A130485040149054BFD5B61
:1025E00009ECB25022544A8592540259F249624A87
:1025F000D24A424BB24B4561828004448329440055
:10260000FD1963D409000040E1BFDE24637BFB00B9
:102610008397E40063877701A6855285829A3369A0
:10262000A90093848406E9BF1971A6DAAE84839564
:10263000E500A2DC86DE328463DB0500DE2423A015
:10264000060093F7070885E7930700401DA03008B0
:1026500036C6EF001022B246E34205FE7247BD6760
:10266000F98F7977BA9793B717009CC2F1BF930798
:1026700000041CC0F6506654D6540145096182809E
:10268000DE25011122CC06CE26CA4AC8898B2E84AB
:1026900089CF930774041CC01CC885475CC8F240EE
:1026A0006244D24442490561828074003000AA84A9
:1026B000A53FA2452A892685292219E98317C40046
:1026C00013F7072069FFF19B93E727005EA4D1B7BA
:1026D000970700009387C7D99CD45E2408C008C818
:1026E00093E707085EA4A2475CC8B24781CF831571
:1026F000E4002685EF00101B11C55E24F19B93E7D3
:1027000017005EA45E243369F9002316240141BF3B
:1027100093870181AA8588436DA0DDC183A7C5FF8A
:10272000411122C406C626C21384C5FF63D3070025
:102730003E94AA84EF00D01E938781849C4381EF4E
:102740002322040023A481842244B240268592449B
:1027500041016F00101D637EF40014403307D40064
:102760006396E7009843DC43369718C05CC0D9BF36
:10277000BA87D84319C3E37DE4FE94433386D70078
:10278000631F86001040B29694C33386D700E31DC2
:10279000C7FA10435843B29694C3D8C375B763754C
:1027A000C400B1479CC04DB71040B306C4006316C7
:1027B000D70014435843B29614C058C0C0C369B779
:1027C0008280011126CA93843500F19806CE22CC6E
:1027D0004AC84EC6A104B14763F3F404B14463E2AE
:1027E000B4042A89EF00D0139387818498433A84F4
:1027F00039E09387C1849C4391E781454A850D2F39
:1028000023A6A184A6854A852527FD596319350786
:10281000B1472320F9004A85EF00B01029A0E3D08A
:1028200004FCB1471CC10145F2406244D244424914
:10283000B249056182801C40858F63CF0702AD4697
:1028400063F6F6001CC03E9404C031A05C406313E4
:10285000870223A4F1844A85EF00B00C1305B4006D
:102860009307440061993307F5405DDF3A94898FFF
:102870001CC05DBF5CC3C5B72287404095BF130431
:1028800035007198E30285FCB305A4404A854D25C7
:10289000E31C35FBB5BF1C46FD171CC663DA0700F9
:1028A000184E63C5E700A9476394F5006FF0FF80F9
:1028B0001C422E851387170018C28CA38280011139
:1028C00022CC26CA4AC84EC652C406CE2A89AE8930
:1028D0003284B304D6007D5A63149400014501A8E4
:1028E0000C204E864A85453F0504E31745FFF2401C
:1028F0006244D2444249B249224A0561828035711C
:1029000022CD26CB4AC94EC706CF52C556C35AC19F
:10291000DEDEE2DCE6DAAA89AE843289368409C5D5
:102920001C4D99E3EFF09FB997170000938707C9F3
:102930006397F40C83A44900DE24A18BFDC39C485B
:10294000EDC393070002A304F1029307000302D230
:102950002305F10222C6930B5002971A0000938AB6
:10296000EAC9054C294B4A841C2099C3639E770D04
:10297000B30C2441638D0C00E6864A86A6854E85FD
:102980003D3FFD57630FF51C9256E69636D21C204C
:102990006389071CFD571309140002C802CE3ECA02
:1029A00002CCA309010482D483450900154656854B
:1029B000A12F13041900C24751E913F7070109C7F2
:1029C00013070002A309E10413F7870009C71307DF
:1029D000B002A309E104834609001307A002638F34
:1029E000E606F2474A8481462546182093051400DE
:1029F000130707FD6377E60AB5CA3ECE85A8971789
:102A000000009387A7BD6395F40083A489002DB7C8
:102A100097170000938787B8E390F4F283A4C90066
:102A200021BFA6854E85EFF00FF501DD7D55FA40FB
:102A30006A44DA444A49BA492A4A9A4A0A4BF65B36
:102A4000665CD65C0D618280050439BF3305554153
:102A50003315AC00C98F3EC82289B9B732479306F7
:102A60004700184336C6634707023ACE182093073B
:102A7000E002631DF70418309307A002631BF702FE
:102A8000B2470904138747009C433AC663C1070253
:102A90003ECA2DA83307E04093E727003ACE3EC850
:102AA000F1B7B387670385462E84BA973DBFFD57BC
:102AB000C5B7050402CA81468147254618209305FB
:102AC0001400130707FD6374E606F9F20C200D46A7
:102AD00017150000130505B3052D11CD971700003C
:102AE000938747B21D8D93070004B397A700424513
:102AF00005045D8D2AC80C20194617150000130522
:102B0000A5B0130914002304B102FD2B35C197D7DA
:102B1000FFFF9387274F95E74247B2471377071088
:102B200009CF91073EC69257D2973ED22DBDB387AB
:102B3000670385462E84BA9751B79D07E19BA1078D
:102B4000D5B77800970600009386A6D726860C088E
:102B50004E8597000000E7000000FD572A8AE31425
:102B6000F5FCDE2493F70704E39207EC1255C1B598
:102B70007800970600009386C6D426860C084E85FA
:102B8000012AE1BF797156CA9C49BA8A984522D474
:102B900026D24ECE52CC06D64AD05AC85EC6AA8994
:102BA0002E84B284368A63D3E700BA879CC0034779
:102BB000340419C385079CC01C4093F7070281C7E2
:102BC0009C4089079CC00329040013796900631A9B
:102BD0000900130B9401FD5B5C449840998F634C92
:102BE000F9041C408346340493F70702B336D0003F
:102BF000A5EB13063404D2854E85829AFD576303F4
:102C0000F5041C4011469840998B544481446397C5
:102C1000C700B384E64063D3040081441C441848D1
:102C20006354F700998FBE94014969047D5B6398F2
:102C30002405014509A885465A86D2854E85829A83
:102C4000631E75017D55B250225492540259F249C7
:102C5000624AD24A424BB24B456182800509ADBF00
:102C60003307D40013060003A301C7040347540429
:102C700093871600A2978906A381E7049DBF854626
:102C80002286D2854E85829AE30E65FB050945B7FB
:102C9000797122D426D24AD04ECE06D652CC56CA0C
:102CA0005AC8B689942D930790063289AA842E8437
:102CB00013863504638DF60263E2D7069307800519
:102CC0006385F61863EDD700638D06209307300403
:102CD000638EF60A930A24042301D404C9A093073F
:102CE00030066385F60A93074006E395F6FE1C401E
:102CF000084393F6070893054500C5C61C410CC35D
:102D000063D807001307D002B307F040A301E4041F
:102D1000971600009386C68F294765A8930700077A
:102D20006381F61663E5D7029307E0066388F61819
:102D30009307F006E390F6FA0C401C4313F80508DD
:102D4000138547006307080608C39C4385A89307BB
:102D50005007E383F6FE930780076388F612930714
:102D60003007E399F6F61C43D0418145938647002E
:102D700014C383AA07005685412E01C5330555416A
:102D800048C05C401CC8A301040461A81C43930A0A
:102D90002404938647009C4314C32301F40485470D
:102DA000D5B793F607041C410CC3B9DAC207C18733
:102DB00081BF93F5050408C3C9D99E231307F00604
:102DC0006386E60E97160000938686842947A30142
:102DD00004044C400CC463C5050008406D9908C04C
:102DE00099E3B28A89CDB28AB3F5E702FD1AB695A6
:102DF0008C212380BA00B3D5E70263FFE70AA1471D
:102E0000631EF7001C40858B91CB58401C4863C75C
:102E1000E70093070003A38FFAFEFD1A330656411D
:102E200010C84E87CA867000A2852685A13B7D5AB0
:102E3000631D450B7D55B250225492540259F249FC
:102E4000624AD24A424B45618280A382D5049706EA
:102E500000009386E67B0C40084313F805081C41EC
:102E60001105630D080208C313F7150001C793E5A8
:102E700005020CC04147A1FF0C4093F5F5FD0CC0C5
:102E8000B9B79C4193E707029CC193078007A3024F
:102E9000F404970600009386E67875BF13F80504DE
:102EA00008C3E30308FCC207C1837DBF9706000087
:102EB00093860676214721BFAE873DB794411C43D8
:102EC000CC4913F80608138547006306080008C3B9
:102ED0009C438CC339A008C393F606049C43F5DADF
:102EE0008EA323280400B28A2DBF14485686CA85B3
:102EF00026858299E30045F51C40898B8DE7B24712
:102F00004844E35AF5F23E853DB785465686CA8564
:102F100026858299E30065F3050A5C443247998F60
:102F2000E345FAFEE9BF014A930A94017D5BF5B7D8
:102F3000411122C42A842E859707002023AE07F270
:102F400006C6EFE05FEAFD576319F500970700201A
:102F5000938787F29C4391C31CC0B2402244410135
:102F60008280411122C42E848395E50006C65D2A25
:102F7000634905007C48AA977CC8B24022444101BD
:102F800082805E247D777D17F98F5EA4FDB7DE25F4
:102F9000011122CC26CA4AC84EC606CE93F70710A6
:102FA000AA842E843289B68991C78395E500894623
:102FB00001460D225E247D777D17F98F5EA483156F
:102FC000E4006244F240CE864A86B24942492685F0
:102FD000D244056125A8411122C42E848395E500C1
:102FE00006C6CD28FD575A24631AF500FD77FD1754
:102FF000F98F5EA4B2402244410182808567D98F57
:103000005EA468C8C5BF8395E50025A8411122C408
:103010002A842E85B28536869707002023AE07E4E2
:1030200006C6EFE07FD8FD576319F500970700202B
:10303000938787E49C4391C31CC0B2402244410162
:103040008280411122C42A842E859707002023A55F
:1030500007E206C61122FD576319F5009707002005
:10306000938787E19C4391C31CC0B2402244410135
:103070008280411122C42A842E85B28597070020C0
:1030800023AC07DE06C6CD20FD576319F500970770
:103090000020938767DE9C4391C31CC0B24022444A
:1030A00041018280411122C42A842E859707002085
:1030B00023A407DC06C6C920FD576319F50097074E
:1030C0000020938767DB9C4391C31CC0B24022441D
:1030D00041018280411122C42A842E85B285368620
:1030E0009707002023AA07D806C67928FD57631939
:1030F000F50097070020938727D89C4391C31CC0F5
:10310000B24022444101828093F5F50F2A96631460
:10311000C500014582801C21E38EB7FE0505C5BFB1
:1031200082808280411122C42A842E85B28536860F
:103130009707002023A207D406C6B928FD576319B4
:10314000F50097070020938727D39C4391C31CC0A9
:10315000B240224441018280930780051707002076
:10316000232CF7D07D558280930780051707002018
:103170002324F7D07D558280930780051707002010
:10318000232CF7CE01458280930780051707002086
:103190002324F7CE7D5582809307800517070020F2
:1031A000232CF7CC7D55828053797374656D436C05
:1031B0006B3A256420487A0D0A0000004F4C4544C4
:1031C00020496E69742E2E2E0D00000046505320AB
:1031D00054657374696E672E2E2E0000436F6D6DFB
:1031E000616E642052656365697665643A20256482
:1031F0000D0A0000B6120000F41000004411000097
:103200009C11000044110000A2100000B60E000046
:1032100044110000B0100000C8100000B0120000FF
:10322000DA0E0000660F0000B80F0000D40F000097
:10323000D40F00001A1000002A100000494E544517
:10324000525255505431000053455455502041437B
:10325000542046495245440056454E444F5220435F
:103260004D4420307830312052454345495645443D
:10327000000000004C4544204F4E00004C454420C7
:103280004F46460009023C0001010080320904005B
:103290000006FFFFFF00070501024000000705814F
:1032A00002400000070503024000000705840240B9
:1032B00000000705050240000007058602400000E7
:1032C00009023C0001010080320904000006FFFFF2
:1032D000FF0007050102000200070581020002004D
:1032E000070503020002000705840200020007052B
:1032F000050200020007058602000200120100021A
:10330000FFFFFF40861A375501000102030100004C
:103310000E037700630068002E0063006E0000005B
:1033200012034300480033003200560033003000DF
:10333000780000000A060002FFFFFF4001000000C5
:1033400016033000310032003300340035003600FF
:1033500037003800390000000000000000000000C5
:10336000002F000000000700070000147F147F14E6
:1033700000242A7F2A12006264081323003649556C
:10338000225000000503000000001C224100000044
:1033900041221C000014083E08140008083E0808DA
:1033A000000000A060000008080808080000606035
:1033B0000000002010080402003E5149453E004232
:1033C0007F400000004261514946002141454B3198
:1033D000001814127F10002745454539003C4A4922
:1033E0004930000171090503003649494936000694
:1033F0004949291E000036360000000056360000FC
:103400000008142241000014141414140000412276
:10341000140800020151090600324959513E007C4E
:103420001211127C007F49494936003E4141412238
:10343000007F4141221C007F49494941007F090921
:103440000901003E4149497A007F0808087F0000D1
:10345000417F4100002040413F01007F081422418C
:10346000007F40404040007F020C027F007F040844
:10347000107F003E4141413E007F09090906003EA0
:103480004151215E007F09192946004649494931C9
:103490000001017F0101003F4040403F001F2040EC
:1034A000201F003F4038403F0063140814630007AA
:1034B0000870080700615149454300007F41410001
:1034C000000204081020000041417F0000040201B6
:1034D000020400404040404000000102040000207F
:1034E00054545478007F48444438003844444420BD
:1034F00000384444487F00385454541800087E096A
:103500000102000C5252523E007F08040478000071
:10351000447D4000002040443D00007F10284400CE
:103520000000417F4000007C04180478007C0804FF
:10353000047800384444443800FC2424241800183B
:10354000242418FC007C0804040800485454542027
:1035500000043F444020003C4040207C001C2040B0
:10356000201C003C4030403C004428102844000C03
:103570005050503C004464544C4400083641000014
:1035800000007F0000000000413608000001020436
:103590000201000000000000000000000000000028
:1035A000000000000000000000000000000000001B
:1035B000000000000000000000000000000000000B
:1035C00000000000000000000000000000000000FB
:1035D00000000000000000000000000000000000EB
:1035E00000000000000000000000000000000000DB
:1035F0000000000000000000232D302B2000000000
:10360000686C4C00656667454647000030313233D0
:1036100034353637383941424344454600000000CE
:103620003031323334353637383961626364656638
:043630000000000096
:10363400000000000000000001020304060708095E
:10364400000000000000000000AAAAAAAAAAAAAAD0
:10365400AAEEEEEEEEEEEEEEEEFEFFFFFFFFFFFF54
:10366400FFFFFFFFFF7FBFDFEFF7FBFDFC7EBFDF48
:10367400EFF7FBFD7E0000000907000000000000DA
:103684000000000000000000000000000000000036
:103694000000000000000000000000000000000026
:1036A4000000000000000000000000000000000016
:1036B40000000000090700000000000000000000F6
:1036C40000000000000000000000000000000000F6
:1036D40000000000000000000000000000000000E6
:1036E40000000000000000000000000000000000D6
:1036F4000000000001020304010203040607080994
:1037040000000000B8350000D835000098350000EE
:1037140000000000000000000000000000000000A5
:103724000000000000000000000000000000000095
:103734000000000000000000000000000000000085
:103744000000000000000000000000000000000075
:103754000000000000000000000000000000000065
:103764001E00000000D8B80502040608782E0020C8
:10377400D000002004030904D00000200000000051
:00000001FF
